:020000040C00EE
:100000000088FE1F010200089902000899020008FA
:1000100099020008990200089902000800000000F7
:10002000000000000000000000000000990200082D
:10003000990200080000000099020008DD2D000868
:100040009902000899020008990200089902000824
:10005000B94A0008990200089902000899020008AC
:1000600099020008000000000000000000000000ED
:100070009902000800000000990200089902000897
:1000800099020008990200089902000899020008E4
:1000900099020008990200089902000899020008D4
:1000A00099020008990200089902000899020008C4
:1000B00099020008990200089902000899020008B4
:1000C00099020008990200089902000899020008A4
:1000D0009902000899020008990200089902000894
:1000E0009902000899020008990200089902000884
:1000F0009902000899020008990200089902000874
:100100009902000899020008990200089902000863
:1001100099020008D54A00089902000899020008CF
:100120009902000899020008990200089902000843
:100130009902000899020008990200089902000833
:100140009902000899020008990200089902000823
:100150009902000899020008990200089902000813
:10016000000000000000000000000000000000008F
:1001700099020008990200089902000899020008F3
:1001800099020008990200089902000899020008E3
:1001900099020008990200089902000899020008D3
:1001A00099020008990200089902000899020008C3
:1001B00099020008990200089902000899020008B3
:1001C0009902000899020008852700089902000892
:1001D0009902000899020008990200080000000036
:1001E0009902000899020008990200089902000883
:1001F00099020008000000009902000800000000B9
:10020000DFF874D01D4880471D4C1E4DAC4209DA02
:1002100021686268A368043BA2BFC858D050FAE7BF
:100220000C34F3E7184B194CA34208DA19685A68E2
:100230000020043AA4BF8850FBE70833F4E71448D1
:100240008047144880470000247A000C0088FE1F75
:10025000CC020000247A000C0088FE1F0000000081
:10026000CC8AFE1FA8020000000000200000000051
:1002700000000020000000000088FE1F9D02000812
:1002800048020008600200086002000878020008C6
:10029000455B00085D4B0008FEE7000098B500AF25
:1002A000054A4FF0005314460FCB84E80F0003F0CB
:1002B000F3FC03F05BFD98BDC4FF032080B584B060
:1002C00000AF2F4BDB6803F48033002B3ED02D4B67
:1002D000DB6803F00103002B02D02B4BFB6002E034
:1002E00003F03AFDF860274B1B6803F00403002B72
:1002F00020D0244B9B6803F070631B0E0133BB605E
:10030000204B9B6803F4FE431B0A01337B601D4BAB
:100310009B6803F4FE031B0C01333B60BB683A6827
:1003200002FB03F3FA68B2FBF3F37A6802FB03F310
:10033000FB600DE0134B9B6803F07F0301333B60D0
:10034000FA683B68B2FBF3F3FB6001E00E4BFB6025
:100350000B4BDB68DBB20133FA68B2FBF3F3FB60F3
:10036000074B1B6903F001030133FA68B2FBF3F397
:10037000FB60064AFB6813601037BD4680BD00BFB6
:10038000004600501047005000366E01C0FF0320A9
:1003900080B582B000AF78607B68074A934207D18E
:1003A0004FF4803000F004FB4FF4803000F07CF913
:1003B0000837BD4680BD00BF0040044080B485B012
:1003C00000AFF8600B467A60FB72FB7A9B08DBB2E9
:1003D0001846FB7A9B08DBB21A46FB68043253F8D6
:1003E0002220FB7A03F00303DB001946F8238B403D
:1003F000DB4302EA0301FB68021D43F82210FB689D
:100400005A6FFB7A5B00194603238B40DB431A408B
:10041000FB685A67FB683A4A934203D0FB68394A43
:1004200093420AD1FB681A6EFB7A012101FA03F3A9
:10043000DB431A40FB681A6642E07B681B78DBB23C
:100440005BB2002B3CDA7B685A68FB7A9A40FB6807
:100450005A60FB7ADB08DBB21846FB7ADB08DBB2BA
:100460001A46FB68103253F82220FB7A03F0070388
:100470009B00194607238B40DB4302EA0301FB681C
:1004800000F1100243F82210FB7ADB08DBB21846B9
:10049000FB7ADB08DBB21A46FB68103253F82220E5
:1004A0007B681B7A1946FB7A03F007039B0001FA6D
:1004B00003F342EA0301FB6800F1100243F8221043
:1004C000FB7A9B08DBB21846FB7A9B08DBB21A4624
:1004D000FB68043253F822207B681B781946FB7AAC
:1004E00003F00303DB0001FA03F342EA0301FB68B4
:1004F000021D43F822101437BD465DF8047B704797
:10050000008E0248008F024880B400AF034B1B6886
:100510001846BD465DF8047B704700BFC0FF03204E
:1005200080B400AF034BD3F8C4301846BD465DF825
:10053000047B70470040005080B584B000AF786005
:10054000FFF7BCFE0B4B1B680B4AA2FB03239A0C64
:100550007B6802FB03F37B600023FB6003E000BFCA
:10056000FB680133FB60FA687B689A42F7D3103767
:10057000BD4680BDC0FF032083DE1B4380B400AFB7
:10058000034B5B681846BD465DF8047B704700BFAF
:100590007440005080B483B000AF7860034A7B6839
:1005A000D3600C37BD465DF8047B70477440005043
:1005B000B0B584B002AF7860002000F0C5F800F05C
:1005C000C7FA7B68DB79002B0AD000F0FFFA00BF86
:1005D00000F0EAFA034683F00103DBB2002BF7D107
:1005E0007B685B7A184600F029F900BFFFF798FF97
:1005F0000346002BFAD17B681B7A184600F082FA7A
:100600007B681B7C184600F037F97B685B7C1846DA
:1006100000F05AF97B689B7C184600F041F97B6832
:10062000DB7C184600F064F97B689B79002B0AD0CC
:1006300000F004FB00BF00F029FB034683F0010338
:10064000DBB2002BF7D17B68DB78002B09D17B680C
:100650009B7983F00103DBB2002B17D000F03AFB4B
:1006600014E000F027FB7B6899887B68DA787B6868
:100670005B781D467B681B781C467B689B780093E3
:10068000084611462A46234600F034FB7B68DB68A7
:10069000B3F5803F03D14FF4803000F055F8FFF7F9
:1006A0000DFE0837BD46B0BD80B485B000AF7860A0
:1006B0007B681B0FFB607B6823F07043BB60FA68AC
:1006C00013465B0013449B001A46044B1344BA685C
:1006D0001A601437BD465DF8047B7047144400501F
:1006E00080B485B000AF78607B681B0FFB607B68CF
:1006F00023F07043BB60FA6813465B0013449B0011
:100700001A46084B13441A68BB681340002B14BFE9
:1007100001230023DBB218461437BD465DF8047B85
:10072000704700BF0C44005080B500AFFFF7ECFEEF
:100730000246044B5B6903F0010322FA03F31846F7
:1007400080BD00BF0046005080B483B000AF786029
:100750000649064BDB6823F480327B681343CB6089
:100760000C37BD465DF8047B704700BF0046005063
:1007700080B483B000AF78600649064B9B6923F4D0
:1007800080327B6813438B610C37BD465DF8047B78
:10079000704700BF0046005080B483B000AF78605F
:1007A0000649064B5B6A23F440327B6813434B6275
:1007B0000C37BD465DF8047B704700BF0046005013
:1007C00080B483B000AF0346FB80FB88002B08D1C8
:1007D0000A4A0A4BDB6823F4807323F00103D360D9
:1007E00007E0064A054BDB6843F4807343F00103DE
:1007F000D3600C37BD465DF8047B7047104700504E
:1008000080B483B000AF0346FB7100BF094BD3F83F
:10081000C43003F00803002BF8D10749064BDB680E
:1008200023F04002FB791343CB600C37BD465DF8E3
:10083000047B7047004000500043005080B483B0F8
:1008400000AF0346FB7100BF094BD3F8C43003F07F
:100850000803002BF8D10749064BDB6823F0800220
:10086000FB791343CB600C37BD465DF8047B7047C2
:10087000004000500043005080B483B000AF786067
:100880000649064BDB6823F0FF027B68013B1343FC
:10089000CB600C37BD465DF8047B704700460050C6
:1008A00080B483B000AF78600649064B1B6A23F022
:1008B00001027B68013B13430B620C37BD465DF8B8
:1008C000047B70470046005080B483B000AF78606E
:1008D0000649064B1B6923F001027B68013B134369
:1008E0000B610C37BD465DF8047B70470046005035
:1008F00080B483B000AF78600649064B5B6923F093
:1009000001027B68013B13434B610C37BD465DF828
:10091000047B70470046005080B483B000AF78601D
:100920000649064B9B6923F007027B68013B134392
:100930008B610C37BD465DF8047B70470046005064
:1009400080B483B000AF78600649064BDB6923F0C2
:100950003F027B68013B1343CB610C37BD465DF81A
:10096000047B70470046005080B483B000AF7860CD
:100970000649064B5B6A23F0FF027B68013B134389
:100980004B620C37BD465DF8047B70470046005053
:1009900080B483B000AF0346FB71044AFB79536017
:1009A0000C37BD465DF8047B704700BF0046005021
:1009B00080B485B000AF78607B681B0FFB607B68FC
:1009C00023F07043BB60FA6813465B0013449B003E
:1009D0001A46044B1344BA681A601437BD465DF8D2
:1009E000047B70474846005080B485B000AF786003
:1009F0007B681B0FFB607B6823F07043BB60FA6869
:100A000013465B0013449B001A46084B13441A68B4
:100A1000BB681340002B14BF01230023DBB2184630
:100A20001437BD465DF8047B704700BF4046005058
:100A300080B400AF054A054B5B6923F4803323F093
:100A400002035361BD465DF8047B704710470050B8
:100A500080B483B000AF78603960284A274B5B6967
:100A600043F00103536100BF244B1B6903F00103F2
:100A7000002BF9D0214A214B5B6943F010035361ED
:100A80001E493B68013B1A027B68013B1B0613436E
:100A90004B611A4A194B5B6943F040035361174A93
:100AA000164B5B6923F010035361144A134B5B69C7
:100AB00043F48023536100BF104B1B6903F0040310
:100AC000002BF9D00D4A0D4B5B6923F001035361F4
:100AD00000BF0A4B1B6903F00103002BF9D1074A41
:100AE000064B5B6923F040035361054B0822DA6033
:100AF0000C37BD465DF8047B704700BF10470050BF
:100B00006041005080B582B000AF0346FB710F4AD0
:100B10000E4B5B6843F480135360FB79012B0ED1BD
:100B20000A4A0A4B5B6823F4801353606420FFF782
:100B300003FD064A054B5B6843F4002353606420C1
:100B4000FFF7FAFC0837BD4680BD00BF10470050D4
:100B500080B400AF124B1B6803F00103002B09D1D6
:100B60000F4B01225A6000BF0D4B1B6803F00103BD
:100B7000002BF9D00B4B1B6803F40073002B0AD039
:100B8000084B4FF400729A6000BF064B1B6803F4D9
:100B90000073002BF9D1BD465DF8047B704700BFA0
:100BA000004200500044005080B400AF064B1B6868
:100BB00003F00803002B0CBF01230023DBB218460F
:100BC000BD465DF8047B70470043005080B500AF20
:100BD0004FF40000FFF7DEFC174A174BDB6923F0E8
:100BE0003003D36100BFFFF7C9FC034603F40003E1
:100BF000002BF8D04FF40030FFF7CCFC0E4B08224E
:100C00005A6000BFFFF7BAFC034603F40033002B21
:100C1000F8D04FF40020FFF7BDFC074A064BDB6815
:100C200043F00803D36000BFFFF7A8FC034603F4BA
:100C30000023002BF8D080BD00430050B0B500AFBA
:100C40000F4A0F4B5B6823F4803353600D4D0D4BFF
:100C50005B6823F4702424F0300403F07DF802462E
:100C6000094BA3FB02231B0D013B1B0423436B60B9
:100C7000034A034B5B6823F400335360B0BD00BFED
:100C800010470050004700506BCA5F6B80B400AF44
:100C9000074B1B6803F46073B3F5607F0CBF01233F
:100CA0000023DBB21846BD465DF8047B704700BFE9
:100CB0001047005080B400AF054A054B5B6823F431
:100CC000803323F002035360BD465DF8047B704718
:100CD0001047005080B400AF054A054B5B6843F4F1
:100CE000803343F002035360BD465DF8047B7047D8
:100CF0001047005080B586B000AFBA607B600346F5
:100D0000FB810B467B73FB891846FFF759FD7B7B04
:100D1000012B40F08B80FB89002B09D103F01CF8DC
:100D20000246544BA3FB02239B0C9B057B6102E014
:100D30004FF0C0637B617B697A6802FB03F2BB689A
:100D4000B2FBF3F37B617B694B4AA2FB03231B09D4
:100D50009B0D3B61494A494B5B6843F0010353607B
:100D600000BF464B1B6803F00103002BF9D0434A38
:100D7000424B5B6843F01003536040493F4B9A6815
:100D80003F4B13407A68013A12021A433B69013B18
:100D90001B041A43BB68013B1B0613438B60374A95
:100DA000364B5B6843F040035360344A334B5B6817
:100DB00023F010035360314A304B5B6843F48023C7
:100DC000536000BF2D4B1B6803F00403002BF9D0C8
:100DD0002A4A2A4B5B6823F00103536000BF274B6C
:100DE0001B6803F00103002BF9D17B69254AA2FBA4
:100DF00003235B099B0D3B613A6A3B699A4202D22D
:100E0000386900F045F87B695B081F4AA2FB0323A1
:100E10005B099B0D3B613A6A3B699A4202D2386991
:100E200000F036F8386A00F033F81CE01349134B31
:100E30009B6823F07F023B6A013B13438B6000BF3A
:100E40000E4B1B6803F01003002BF9D00B4A0B4B21
:100E50005B6843F00103536000BF084B1B6803F05D
:100E60000103002BF9D0094B0522DA601837BD4683
:100E700080BD00BF83DE1B43ABAAAAAA1047005067
:100E8000FF8080F089888888B7600BB66041005089
:100E900080B582B000AF78600B490B4B9B6823F4A0
:100EA000FE027B68013B1B0413438B6000BF064BB3
:100EB0001B6803F02003002BF9D03220FFF73CFB26
:100EC0000837BD4680BD00BF1047005080B483B0D6
:100ED00000AF78607B684FF48072DA600C37BD46F3
:100EE0005DF8047B704700BF80B582B000AF7860CA
:100EF0007B68104A934203D10420FFF7D5FB16E02C
:100F00007B680D4A934203D10820FFF7CDFB0EE02A
:100F10007B680A4A934203D11020FFF7C5FB06E025
:100F20007B68074A934202D10648FFF7BDFB0837AA
:100F3000BD4680BD00C000400000014000400140AF
:100F4000004000480100001080B582B000AF78601A
:100F50007B68104A934203D10420FFF729FD16E075
:100F60007B680D4A934203D10820FFF721FD0EE074
:100F70007B680A4A934203D11020FFF719FD06E06F
:100F80007B68074A934202D10648FFF711FD0837F4
:100F9000BD4680BD00C0004000000140004001404F
:100FA000004000480100001080B582B000AF7860BA
:100FB0001020FFF7EDFC7868FFF7C6FF7868FFF7B1
:100FC00093FF0837BD4680BD80B584B000AF786020
:100FD0000B46FB707868FFF7E7FF7868FFF776FF4E
:100FE0007B681B68FB60FB6823F44043FB60FB7875
:100FF0009B03FA681343FB607B68FA681A6010373A
:10100000BD4680BD80B483B000AF786039603B6876
:101010001A687B685A613B685B79C3F34013DBB2A3
:101020001A057B685A603B681B79C3F30303DBB284
:101030001A467B685A623B685B79C3F30303DBB2F1
:101040001A467B681A623B685B79C3F30013DBB214
:101050001A467B689A613B681B79C3F30313DBB2C2
:101060001A467B68DA620C37BD465DF8047B704730
:1010700080B483B000AF786039603B681A687B68E1
:101080005A613B685B79C3F30003DBB21A057B68E6
:101090005A603B681B79C3F30303DBB21A467B68D3
:1010A0005A623B681B79C3F30313DBB21A467B68B1
:1010B000DA620C37BD465DF8047B704780B485B0BA
:1010C00000AF78600B46FB707B685B68FB60FB6879
:1010D00023F03003FB60FB781B01FA681343FB60CD
:1010E0007B68FA685A601437BD465DF8047B704728
:1010F00080B485B000AF78600B46FB707B685B689E
:10110000FB60FB6823F0C003FB60FB789B01FA687F
:101110001343FB607B68FA685A601437BD465DF87C
:10112000047B704780B489B000AFF8600B467A60EA
:10113000FB72FB7A013BFB77FB681B68BB61FB7FA3
:101140005B00DBB21033FB75FB7D032202FA03F375
:10115000DB43BA691340BB617B685B781A46FB7D51
:1011600002FA03F3BA691343BB61FB7F1633FB75C5
:10117000FB7D012202FA03F3DB43BA691340BB6132
:101180007B689B781A46FB7D02FA03F3BA69134326
:10119000BB61FB7F5B00DBB21933FB75FB7D032278
:1011A00002FA03F3DB43BA691340BB617B68DB7867
:1011B0001A46FB7D02FA03F3BA691343BB61FB7F56
:1011C0009B00FB75FB7D0F2202FA03F3DB43BA6938
:1011D0001340BB617B681B781A46FB7D02FA03F360
:1011E000BA691343BB61FB68BA691A602437BD460C
:1011F0005DF8047B704700BF80B487B000AF7860B3
:101200000B46FB701346BB70FB780B2B36D801A244
:1012100052F823F045120008451200084F1200084A
:101220004F1200087D1200087D1200087D12000890
:101230007D1200085912000865120008711200089A
:101240007112000803233B6100237B611BE00C2328
:101250003B6102237B6116E04FF440733B6108233E
:101260007B6110E04FF440633B610A237B610AE03D
:101270004FF440533B610C237B6104E000233B614E
:1012800000237B6100BF3B69002B13D07B68D3F840
:10129000A830FB603B69DB43FA681340FB60BA7817
:1012A0007B6902FA03F3FA681343FB607B68FA6810
:1012B000C3F8A8201C37BD465DF8047B704700BF0B
:1012C00080B483B000AF78607B684FF48072DA60DE
:1012D0000C37BD465DF8047B704700BF80B483B017
:1012E00000AF78607B6801221A610C37BD465DF85B
:1012F000047B704780B582B000AF78607B68094A94
:10130000934203D18020FFF7CFF907E07B68064ABC
:10131000934203D14FF48070FFF7C6F90837BD46FA
:1013200080BD00BF000002400040024080B582B096
:1013300000AF78607B68094A934203D18020FFF7B1
:1013400037FB07E07B68064A934203D14FF4807075
:10135000FFF72EFB0837BD4680BD00BF00000240EE
:101360000040024080B582B000AF78601020FFF7E7
:101370000FFB7868FFF7DAFF7868FFF7BBFF0837E5
:10138000BD4680BD80B584B000AF78600B46FB7071
:101390007868FFF7E7FF7868FFF792FF7B681B68C4
:1013A000FB60FB6823F44043FB60FB789B03FA6817
:1013B0001343FB607B68FA681A601037BD4680BD36
:1013C00080B582B000AF786039607868FFF786FF3B
:1013D0003B681A687B685A613B685B7BC3F3001308
:1013E000DBB21A057B685A603B681B7BC3F30303BF
:1013F000DBB21A467B685A623B681B7BC3F303135C
:10140000DBB21A467B68DA623B685B7BC3F303039B
:10141000DBB21A467B681A623B685A687B689A613D
:101420003B689B6883F014027B689A640837BD466A
:1014300080BD00BF80B483B000AF78600B467B8076
:101440007A887B685A630C37BD465DF8047B704729
:1014500080B483B000AF78600B46FB7013463B80CE
:10146000FB78002B03D13A887B68DA6302E03A8884
:101470007B685A640C37BD465DF8047B704700BF3B
:1014800080B487B000AF78600B46FB701346BB702A
:10149000FB780B2B3BD801A252F823F0CD140008A7
:1014A000CD140008D7140008D7140008E114000870
:1014B000E11400080F1500080F150008EB140008D0
:1014C000F7140008031500080315000803237B61C7
:1014D00000233B6120E00C237B6102233B611BE086
:1014E00030237B6104233B6116E04FF440737B6142
:1014F00008233B6110E04FF440637B610A233B61AA
:101500000AE04FF440537B610C233B6104E000236D
:101510007B6100233B6100BF7B69002B13D07B689C
:10152000D3F8A830FB607B69DB43FA681340FB60AB
:10153000BA783B6902FA03F3FA681343FB607B68ED
:10154000FA68C3F8A8201C37BD465DF8047B7047D5
:1015500080B584B000AFF8600B467A60FB72F86823
:10156000FEF716FFFB681A68FB7A9B0019460F23EB
:101570008B40DB431A407B681B68F97A89008B40FB
:101580001A43FB681A60FA7A7B685968FB68043270
:1015900043F822101037BD4680BD00BF80B483B031
:1015A00000AF78600B46FB701346BB70FA78BB78CF
:1015B00003F00303D9B27B68083201F0030109018B
:1015C00053F8220020F03000014343F822100C377A
:1015D000BD465DF8047B704780B483B000AF78608F
:1015E0000B46FB701346BB707B685A6FFB785B0041
:1015F000194603238B40DB431A407B685A677B689C
:101600005A6FBB78F97849008B401A437B685A6758
:101610000C37BD465DF8047B704700BF80B483B0D3
:1016200000AF78607B689B6BDBB223F07F03DBB29B
:1016300018460C37BD465DF8047B704780B483B014
:1016400000AF786039607B683A68DA640C37BD4671
:101650005DF8047B704700BF80B586B000AFF860CE
:10166000B9601346FB7110237B61F86800F09EF8A7
:10167000BB681B7A002B02D0BB681B7A7B61FB79AD
:10168000002B14D0BB681B79002B09D0BB681B68EA
:101690001A467B69F86811461A4600F045F906E0DB
:1016A000BB681B68F86819467A6900F0CBF8BB681C
:1016B000DB79013B5A007B695B0801331B02134352
:1016C00043F4403343F00103FA68D363BB685B79AA
:1016D000013B1B0643F48172FB685A63BB689B792C
:1016E000002B09D0FB685A6BBB689B79013B1B043C
:1016F0001A43FB685A6308E0FB685A6BBB685B7966
:10170000013B1B041A43FB685A63FB684FF4A06259
:101710009A63FB684FF0FF32DA64BB685B891A4654
:10172000FB681A641837BD4680BD00BF80B582B023
:1017300000AF78600B467B807B68D3F8083103F0FC
:10174000E063002B10D100BF7868FFF767FF034606
:10175000802BF9D078684FF40051FFF76FFF7A883B
:101760007B68C3F8802003E07A887B68C3F8802117
:101770000837BD4680BD00BF80B485B000AF78603B
:101780007B68D3F80C3103F0E063002B03D17B6856
:101790005B6DFB8103E07B68D3F81C31FB81FB8927
:1017A00018461437BD465DF8047B704780B582B09B
:1017B00000AF78607B681A4A934203D07B68194A6D
:1017C000934203D1184800F0BBF916E07B68174A32
:1017D000934203D07B68164A934203D1154800F028
:1017E000AFF90AE07B68144A934203D07B68134A3E
:1017F000934202D1124800F0A3F97B680322DA6019
:1018000000BF7B68DB6803F00103002BF9D07B6825
:101810001B6C23F00F027B681A640837BD4680BD3D
:10182000000003400002034008000340000002489B
:1018300000020248080002480040024800420248F4
:101840000840024880B58EB000AFF860B9607A6099
:10185000BB68632B5AD97B68002B57D0FEF764FF17
:1018600002462F4BA3FB02235B093B62BB682C4A59
:10187000A2FB03235B09BB604FF48063FB6201237F
:10188000BB6240F2FF337B624FF480633B6322E034
:101890003B6A3A6B02FB03F2BB68796801FB03F316
:1018A000B2FBF3F3FB61FB699B0ABB61FB69C3F30A
:1018B00009037B61BB69B3F5806F09D87A697B6ADC
:1018C0009A4205D27B697B62BB69BB623B6BFB6260
:1018D0003B6B013B3B633B6B002BD9D1FB6A013B6C
:1018E00043F40042FB681A61FB685A690D4B1340D0
:1018F0007A68013A92021A43BB6A013B1B041A43FD
:10190000FB685A61002387F8373002E0012387F82B
:10191000373097F8373018463837BD4680BD00BF9E
:101920001F85EB51EF8000FC80B58CB000AFF860F4
:10193000B9607A60FEF7F8FE03463B62BB687A68DE
:1019400002FB03F3FB610123FB623A6AFB699A42E3
:101950005FDD3A6AFB6992FBF3F3BB6210E0FB6A5E
:101960000133FB62BB687A6802FB03F31A46FB6A29
:1019700003FB02F3FB613A6AFB6992FBF3F3BB6280
:10198000BB6A40F2FE329342E9D83A6A7B68B96A90
:1019900001FB03F3F96A01FB03F3B2FBF3F3BB6151
:1019A0003A6ABB6A0133796801FB03F3F96A01FB08
:1019B00003F3B2FBF3F37B61BA687B69D31A83EA62
:1019C000E372A2EBE372B968BB69CB1A002BB8BF14
:1019D0005B429A4202DABB6A0133BB62BB6AC3F55F
:1019E0008063BB62BB6A43F48042FB681A61FB6898
:1019F0005A690C4B13407A68013A92021A43FB6A07
:101A0000013B1B041A43FB685A61002387F8273007
:101A100002E0012387F8273097F82730184630373F
:101A2000BD4680BDEF8000FC80B485B000AFF8609B
:101A3000B9603B601346FB71FB68D3F8083123F0B3
:101A4000E062FB68C3F80821FB68D3F80821094B62
:101A500013403A681102BA681143FA7912060A4330
:101A60001A43FB68C3F808211437BD465DF8047BB0
:101A7000704700BFC0C0FFF880B485B000AFF86009
:101A8000B9603B601346FB71FB68D3F80C3123F05F
:101A9000E062FB68C3F80C21FB68D3F80C210A4B09
:101AA00013403A681102BA681143FA7912060A43E0
:101AB000134343F08052FB68C3F80C211437BD4632
:101AC0005DF8047B704700BFC0C0FFEF80B485B0F5
:101AD00000AFF8600B467A60FB72FB689A69FB7A8C
:101AE000072101FA03F3DB431A40FB7A796801FA14
:101AF00003F31A43FB689A611437BD465DF8047B13
:101B0000704700BF80B485B000AFF8600B467A60C4
:101B1000FB72FB68D3F80821FB7A072101FA03F373
:101B2000DB431A40FB7A796801FA03F31A43FB6836
:101B3000C3F808211437BD465DF8047B704700BF29
:101B400080B582B000AF78607B68284A934218D194
:101B50004FF40060FEF72CFF00BF4FF40060FEF76B
:101B600043FF0346002BF8D14FF40060FEF79CFDC5
:101B700000BF4FF40060FEF7B3FD0346002BF8D121
:101B800030E07B681A4A934214D11A48FEF710FFDE
:101B900000BF1848FEF728FF0346002BF9D115486F
:101BA000FEF782FD00BF1348FEF79AFD0346002BA7
:101BB000F9D117E07B68104A934213D10F48FEF722
:101BC000F7FE00BF0D48FEF70FFF0346002BF9D1CB
:101BD0000A48FEF769FD00BF0848FEF781FD03468D
:101BE000002BF9D10837BD4680BD00BF0800034077
:101BF0000800024880000010084002480001001060
:101C000080B485B000AF786039603B78C3F30203DD
:101C1000DBB21A467B88C3F309039BB21B04134350
:101C2000FB607B68FA68C3F8F021FB78C3F300130C
:101C3000DBB21A07FB78C3F38103DBB29B061A43BE
:101C4000FB78C3F34013DBB25B071343FB60FB7805
:101C5000C3F38013DBB29B07FA681343FB607B6816
:101C6000D3F8F021FB68134343F000427B68C3F8CC
:101C7000F0211437BD465DF8047B704780B483B013
:101C800000AF78607B68D3F8843043F080627B6873
:101C9000C3F884200C37BD465DF8047B704700BF55
:101CA00080B483B000AF78607B68D3F8843023F0D1
:101CB00080627B68C3F884200C37BD465DF8047BE6
:101CC000704700BF80B500AF0120FEF771FE012014
:101CD000FEF7EAFC80BD00BF80B582B000AF78603F
:101CE0003960FFF7EFFF3B685A697B681A603B6811
:101CF0005B6843F400427B68C3F880203B689A68C5
:101D00007B68C3F8A0203B68DA687B68C3F8A4202E
:101D10003B681A697B68C3F880223B681A687B6855
:101D2000C3F8B8200837BD4680BD00BF80B485B079
:101D300000AFF860B9603B601346FB71FB79002B84
:101D400009D1BA6840F21F731340FA683968283124
:101D500042F8213007E0BA68054B1340FA68396849
:101D6000283142F821301437BD465DF8047B7047B6
:101D700000001F0780B485B000AF78607B68D3F89F
:101D8000803043F000427B68C3F880200023FB735F
:101D900017E0FB7B0F4A52F82330BB60BB68D3F8D7
:101DA000803003F44033002B08D000E000BFBB6854
:101DB000D3F8803003F08053002BF7D1FB7B013345
:101DC000FB73FB7B032BE4D91437BD465DF8047B22
:101DD000704700BF2877000880B485B000AF7860F6
:101DE0000B46FB70FB78032B03D9FB78043BFB60AD
:101DF00001E0FB78FB607B68D3F8403123F00F02F1
:101E00007B68C3F840217B68D3F84021FB681A4304
:101E10007B68C3F840211437BD465DF8047B7047EA
:101E200080B582B000AF786039603B6878685968E7
:101E30000022002300F028F83B68786859680122E6
:101E4000002300F021F83B6878689968002201239C
:101E500000F01AF83B68786899680122012300F0C5
:101E600013F83B681A697B68C3F880203B68DA681E
:101E70007B68C3F8B8203B6878681968FFF7C0FE34
:101E80000837BD4680BD00BF80B48DB000AFF8609C
:101E9000B9603B601346FB71FB79002B13D108231B
:101EA000FB624FF4E0637B620023BB621F233B6253
:101EB0003B7AC3F30403DBB2FB617B7AC3F3020317
:101EC000DBB2FB7613E01823FB624FF0E0637B622A
:101ED0001023BB624FF4F8133B62BB7AC3F30403D5
:101EE000DBB2FB61FB7AC3F30203DBB2FB76FB6878
:101EF0003A68283253F822307B617B6ADB437A6987
:101F000013407B61FA7EFB6A02FA03F37A6913439A
:101F10007B613B6ADB437A6913407B61BB6AFA6988
:101F200002FA03F37A6913437B61FB683A6828324B
:101F3000796943F822103437BD465DF8047B704759
:101F400080B485B000AF78600B46FB707B68D3F837
:101F50008030FB60FB6823F00303FB60FB78FA68CA
:101F60001343FB607B68FA68C3F880201437BD46D2
:101F70005DF8047B704700BF80B586B000AF786025
:101F800039600023FB7509E0FB7D394A52F82330A4
:101F90001846FFF785FEFB7D0133FB75FB7D032BA8
:101FA000F2D900233B613B681B7803F00303DBB2EB
:101FB000002B02D04FF400633B610023FB7521E04E
:101FC000FB7D2B4A52F82330D3F88430FB60FB684A
:101FD00023F44073FB603B681B78C3F38103DBB2DF
:101FE0001B02FA681343FB60FA683B691343FB600A
:101FF000FB7D1F4A52F82330FA68C3F88420FB7D2A
:102000000133FB75FB7D032BDAD93B685B6843F436
:10201000000343F400437A68C2F800323B689B68CF
:1020200043F001027B68C3F804223B681B7803F08D
:102030000303DBB2022B07D17B68D3F8043243F4ED
:1020400080327B68C3F804220023FB7509E0FB7D26
:10205000074A52F823301846FFF710FEFB7D013384
:10206000FB75FB7D032BF2D91837BD4680BD00BF41
:102070002877000880B489B000AFF860B9607A6052
:102080007B681B7BBB61FB68D3F888307B61BB68D6
:10209000012202FA03F3DB437A6913407B61BB68D8
:1020A000BA6902FA03F37A6913437B61FB687A69C0
:1020B000C3F888207B685B7B5BB2002B29DB0023A5
:1020C000FB61BB68012B0AD10823FB61FB68D3F8D5
:1020D000B03023F4F852FB68C3F8B0200CE0BB68C2
:1020E000002B09D10023FB61FB68D3F8B03023F04B
:1020F0001F02FB68C3F8B020FB68D3F8B0307A68E1
:10210000527B51B2FA6901FA02F21A43FB68C3F832
:10211000B020FB68D3F8C8207B685B681A43FB6873
:10212000C3F8C820FB68D3F8D0207B689B681A43AB
:10213000FB68C3F8D0207B681968FB68BA688032F6
:1021400043F822102437BD465DF8047B704700BF7A
:1021500080B584B000AF7860144B1B68002B02D1AF
:10216000124B134A1A60114B1B68FB607B680333E8
:1021700023F003037B600D4B1A687B6813440D4A00
:10218000934207D2094B1A687B681344074A1360CD
:10219000FB6806E003F0D0FC02460C2313604FF00E
:1021A000FF3318461037BD4680BD00BFCC8AFE1FE6
:1021B00000000020C0FF032080B400AFBD465DF8E2
:1021C000047B704780B483B000AF786039607B686F
:1021D0001A6C3B68DB431A407B681A640C37BD46B7
:1021E0005DF8047B704700BF80B483B000AF7860B7
:1021F0007B689B6BDBB223F07F03DBB218460C37A6
:10220000BD465DF8047B704780B483B000AF786052
:1022100039607B68D3F808213B68DB431A407B6850
:10222000C3F808210C37BD465DF8047B704700BF3A
:1022300080B483B000AF78607B68D3F8143103F4C6
:102240008053002B14BF01230023DBB218460C3748
:10225000BD465DF8047B704780B483B000AF786002
:102260007B68D3F8143103F40063002B14BF0123FF
:102270000023DBB218460C37BD465DF8047B70477F
:1022800080B483B000AF78607B684FF48042C3F8BD
:1022900018210C37BD465DF8047B704780B483B0CD
:1022A00000AF78607B68D3F8143103F00803002B8B
:1022B00014BF01230023DBB218460C37BD465DF87E
:1022C000047B704780B483B000AF78607B689B6C00
:1022D00018460C37BD465DF8047B704780B483B068
:1022E00000AF786039607B683A68DA640C37BD46C5
:1022F0005DF8047B704700BF80B584B000AF7860A4
:102300000023FB737B685B685B6898470346FB733D
:10231000FB7B18461037BD4680BD00BF80B586B038
:1023200000AFF860B9607A600423FB75FB685B68F6
:1023300093F82630022B00D007E0F868B9687A6875
:1023400000F008F80346FB7500BFFB7D1846183700
:10235000BD4680BD90B589B000AFF860B9607A60C5
:102360000323FB77BB68002B60D07B68002B5DD01C
:102370000223FB77FB689B685B7EDBB283F0010383
:10238000DBB2002B52D0FB689B6801225A76FB68B7
:102390005B6893F82830002B04D0FB681B68184654
:1023A000FFF76EFF0023BB6136E0FB685B6893F8C4
:1023B0002830002B09D000BFFB681B681846FFF7C8
:1023C0006DFF0346002BF7D118E0FB681B68184629
:1023D000FFF778FF786105E0FB681B681846FFF798
:1023E00071FF78617B6903F44043002BF4D0FB68F4
:1023F0001B6818464FF44041FFF770FFBA68BB698D
:10240000D418FB681B681846FFF7B6F90346DBB221
:102410002370BB690133BB61BA697B689A42C4D33C
:102420000023FB77FB689B6800225A76FB7F1846E7
:102430002437BD4690BD00BF80B584B000AF786042
:102440007B689B68FB60FB68DA68FB689B689A4264
:1024500040D27B685B6893F82730002B27D01AE0C6
:10246000FB68DA68FB689B689A4212D27B6819683D
:10247000FB681A68FB68DB6813441B789BB208464C
:102480001946FFF753F9FB68DB685A1CFB68DA60F2
:1024900001E000BF53E07B681B681846FFF7C8FEE9
:1024A000034683F00103DBB2002BD9D147E07B6800
:1024B0001968FB681A68FB68DB6813441B789BB2D9
:1024C00008461946FFF732F9FB68DB685A1CFB68BF
:1024D000DA6034E07B681B681846FFF7BDFE0346F0
:1024E000002B2CD07B685B6893F82730002B07D03B
:1024F0007B681B6818464FF08041FFF785FE06E0B9
:102500007B681B6818464FF40051FFF75BFE00BF65
:102510007B681B681846FFF767FE0346802BF7D0E1
:10252000FB6800221A76FB6800221A607B685B68F1
:102530009B68002B03D07B685B689B6898471037CB
:10254000BD4680BD80B400AF044BDB6803F4E0639C
:102550001B0A1846BD465DF8047B704700ED00E09D
:1025600080B483B000AF0346FB7197F90730002BAE
:102570000BDB084997F907305B09FA7902F01F0273
:10258000012000FA02F241F823200C37BD465DF825
:10259000047B704700E100E080B483B000AF0346E5
:1025A0003960FB7197F90730002B0ADB0D4997F969
:1025B00007303A68D2B29200D2B20B4483F80023BB
:1025C0000AE00949FB7903F00F03043B3A68D2B2F1
:1025D0009200D2B20B441A760C37BD465DF8047BEC
:1025E000704700BF00E100E000ED00E080B489B07A
:1025F00000AFF860B9607A60FB6803F00703FB6125
:10260000FB69C3F10703062B28BF0623BB61FB69E7
:102610000633062B02D9FB69013B00E000237B61F6
:10262000BB69012202FA03F35A1EBB681A407B6998
:102630009A407B69012101FA03F3591E7B680B4024
:10264000134318462437BD465DF8047B704700BF2E
:1026500080B483B000AF78600B46FB701346BB704C
:10266000F878FB787A6806339B0013445B6823F0A4
:102670000702BB781A437968831D9B000B445A609C
:102680000C37BD465DF8047B704700BF80B582B053
:1026900000AF78603960786839680122FEF7DCFFA6
:1026A0000837BD4680BD00BF80B483B000AF7860FE
:1026B0007B681B6C23F00F0343F002027B681A64F3
:1026C0000C37BD465DF8047B704700BF80B582B013
:1026D00000AF0023FB71244B9B6800221A76224B2B
:1026E0009B6800225A7621480121214AFDF766FEA7
:1026F00020482149FFF7CAFF1E4800210022FFF7AA
:10270000A7FF1C48082104220123FFF78DF919486F
:10271000002103220723FFF7AFF91648FFF7C4FF94
:1027200016480621164AFDF749FE124810210022DC
:10273000FFF7CCF90F4810210222FFF7E3F9FFF76A
:1027400001FF034618463F210022FFF74FFF0346D3
:1027500062201946FFF720FF6220FFF701FFFB7997
:1027600018460837BD4680BD0088FE1F0085024818
:102770008877000800400248387700080086024841
:102780004477000880B500AF0148FFF755FE80BDD3
:102790000088FE1F80B483B000AF78600B46FB70EA
:1027A000FB7801229A407B68DA600C37BD465DF801
:1027B000047B704780B483B000AF78607B680122EF
:1027C000DA600C37BD465DF8047B704780B483B097
:1027D00000AF78607B6802221A610C37BD465DF855
:1027E000047B704780B483B000AF78600B467B8079
:1027F0007A887B685A630C37BD465DF8047B704766
:1028000080B483B000AF78600B467B807A887B68A9
:10281000DA630C37BD465DF8047B704780B483B043
:1028200000AF786039607B683A681A610C37BD4642
:102830005DF8047B704700BF80B483B000AF786060
:102840000B46FB707B68D3F8A420FB78012101FACA
:1028500003F31A437B68C3F8A4200C37BD465DF828
:10286000047B704780B584B000AF78600023FB73B1
:102870007B6893F8263083F00103DBB2002B09D08C
:102880007B6893F82130002B04D1786800F008F8B9
:102890000346FB73FB7B18461037BD4680BD00BF67
:1028A00080B584B000AF78607B681B69184601F082
:1028B00021F90346FB737B681B699A687B681B7E62
:1028C00010461946FFF766FF7B685A697B68DB692B
:1028D00010461946FEF796FB786800F02DF87B68E5
:1028E00093F82530002B0FD07B685A697B6893F8EA
:1028F0002030104600211A46FEF77EFC7B685B699B
:1029000018460021FFF798FF7B685B691846FFF7C0
:102910005DFF7B68012283F826207B6893F82430D2
:10292000002B04D07B685B691846FFF743FFFB7BF5
:1029300018461037BD4680BD80B582B000AF7860C4
:102940007B685A697B685B8C10461946FFF74AFF23
:102950007B685B6918460021FFF752FF7B681B69A3
:102960009A687B68DB6810461946FFF757FF0837FF
:10297000BD4680BD80B400AF044BDB6803F4E06368
:102980001B0A1846BD465DF8047B704700ED00E069
:1029900080B483B000AF03463960FB7197F907300C
:1029A000002B0ADB0D4997F907303A68D2B2920042
:1029B000D2B20B4483F800230AE00949FB7903F003
:1029C0000F03043B3A68D2B29200D2B20B441A769B
:1029D0000C37BD465DF8047B704700BF00E100E0A6
:1029E00000ED00E080B489B000AFF860B9607A60B3
:1029F000FB6803F00703FB61FB69C3F10703062BC8
:102A000028BF0623BB61FB690633062B02D9FB698D
:102A1000013B00E000237B61BB69012202FA03F362
:102A20005A1EBB681A407B699A407B69012101FAF2
:102A300003F3591E7B680B40134318462437BD46E9
:102A40005DF8047B704700BF80B582B000AF78604E
:102A50007B68013BB3F1807F01D301230FE00A4A79
:102A60007B68013B53604FF0FF303F21FFF790FF41
:102A7000054B00229A60044B07221A600023184677
:102A80000837BD4680BD00BF10E000E090B486B0BE
:102A900000AF78600023FB736B497A681346DB0054
:102AA00013449B000B4418331B68BB60674B1B68C7
:102AB000002B09D17A681346DB0013449B00624A5D
:102AC0001344624A1360BBE0604B1B687B61BB68C8
:102AD0003B61ABE07B699B691A463B699B1A3B6192
:102AE0003B69002B7ADC7B695B68002B26D07B6915
:102AF00059687A681346DB0013449B00524A13441A
:102B00000B607B69596850487A681346DB001344B0
:102B10009B00034459604C497A681346DB00134418
:102B20009B000B447A691A607A681346DB001344F1
:102B30009B00454A1A447B695A601CE0434B196864
:102B400041487A681346DB0013449B000344196034
:102B50003E4B19687A681346DB0013449B003A4ADF
:102B600013444B607A681346DB0013449B00364ADB
:102B70001344364A136034497A681346DB00134421
:102B80009B000B441B689A693B69D1182E487A68F0
:102B90001346DB0013449B000344183319602A4991
:102BA0007A681346DB0013449B000B4419682648DF
:102BB0007A681346DB0013449B0003441B68986942
:102BC000214C7A681346DB0013449B0023441833DE
:102BD0001B68C31A8B610123FB7324E03B69002B44
:102BE00021DD7B691B68002B1DD117497A681346CC
:102BF000DB0013449B000B447A695A607A681346E1
:102C0000DB0013449B00104A1A447B691A6039693F
:102C10000D487A681346DB0013449B0003441833C5
:102C200019600123FB737B691B687B617B69002B47
:102C300006D0FB7B83F00103DBB2002B7FF44AAFAD
:102C40001837BD4690BC7047488BFE1FF48AFE1FA4
:102C500080B485B000AF78607A681346DB00134417
:102C60009B00294A1344FB60FB685B68002B07D17B
:102C7000FB681B68002B03D1244B00221A603DE047
:102C8000FB685B68002B14D1FB681B681F4A13604C
:102C90001E4B1B6800225A601C4B1B681B4A1268A3
:102CA0009169FA6892690A449A61FB6800221A6085
:102CB00024E0FB681B68002B07D1FB685B680022DF
:102CC0001A60FB6800225A6018E0FB685B68FA68CB
:102CD00012681A60FB681B68FA6852685A60FB68E1
:102CE0001B68FA6812689169FA6892690A449A61E5
:102CF000FB6800221A60FB6800225A601437BD4648
:102D00005DF8047B704700BF488BFE1FF48AFE1FEE
:102D100080B582B000AF2F4B1B687B6050E07B68B2
:102D200093F82030002B13D07B685B691846FFF7BF
:102D30008FFF7B6800225A737B685B691A46012308
:102D40009340DA43244B1B681340234A136034E05A
:102D50007B681B7B002B12D17B685B7B012B2CD10A
:102D60007B685B691846FFF773FF7B6802225A7322
:102D70007B689B687A681269104698471DE07B68FB
:102D80001B7B012B18D17B685B7B012B15D17B68EA
:102D90005B691846FFF75CFF7B68DA697B689A61BC
:102DA0007B685B691846FFF771FE7B689B687A68F1
:102DB00012691046984700E009E0064B1B687B60EB
:102DC0007B68002B03D07B689B69002BA7D008375A
:102DD000BD4680BDF48AFE1FF88AFE1F80B582B012
:102DE00000AF0E4B1B687B600D4B1B6801330C4A18
:102DF00013607B68002B0ED07B689B69012B05D983
:102E00007B689B695A1E7B689A6104E07B6800229C
:102E10009A61FFF77DFF0837BD4680BDF48AFE1F2B
:102E2000FC8AFE1F80B584B000AF78600023FB737E
:102E30007B681B7883F00103DBB2002B20D0134B9F
:102E400000221A601248FFF7FFFD0346FB73FB7B6D
:102E5000012B15D0FFF78EFD034618463F210022B7
:102E6000FFF7C0FD03464FF0FF301946FFF790FD16
:102E7000084B00221A607B6801221A700023FB7342
:102E8000FB7B18461037BD4680BD00BFF48AFE1F8D
:102E900080320200F88AFE1F80B489B000AFF8606B
:102EA0007A603B600B46FB720023FB610023BB6131
:102EB00000237B61FB68B3F57A7F02D20023FB61BC
:102EC0007BE00023BB6175E0BB6901229A403E4B69
:102ED0001B681340002B6AD1BB6901229A403A4B10
:102EE0001B681343384A13603849BA691346DB003C
:102EF00013449B000B441033BA695A603349BA69D2
:102F00001346DB0013449B000B440833FA7A1A7112
:102F10002E49BA691346DB0013449B000B44083367
:102F200002225A71FB682A4AA2FB03239B097B6198
:102F30007B69591C2548BA691346DB0013449B0082
:102F40000344183319602149BA691346DB0013445E
:102F50009B000B4418337A695A601C49BA691346BE
:102F6000DB0013449B000B4408337A681A6017494E
:102F7000BA691346DB0013449B000B4410333A68D4
:102F80001A601249BA691346DB0013449B000B44D4
:102F900000225A600D49BA691346DB0013449B00B6
:102FA0000B4400221A60BB690133FB6105E0BB6979
:102FB0000133BB61BB69072B86D9FB6918462437EF
:102FC000BD465DF8047B7047F88AFE1F488BFE1FE4
:102FD000D34D621080B584B000AF78600123FB73DD
:102FE0007B685A1E1A491346DB0013449B000B44AE
:102FF00008335B79022B26D17B685A1E7B68591EE9
:1030000013480B46DB000B449B00034418335B68FA
:10301000591C0F481346DB0013449B00034418332C
:1030200019607B685A1E0A491346DB0013449B0053
:103030000B44083301225A717B68013B1846FFF7A5
:1030400025FD0023FB73FB7B18461037BD4680BD72
:10305000488BFE1F80B584B000AF78600023FB73FF
:103060007B685A1E16491346DB0013449B000B4431
:1030700008335B79002B02D10123FB731BE07B68D3
:103080005A1E0F491346DB0013449B000B440833C0
:103090005B79012B0FD17B685A1E09491346DB006F
:1030A00013449B000B44083302225A717B68013B96
:1030B0001846FFF7CDFDFB7B18461037BD4680BD97
:1030C000488BFE1F80B584B000AF78603960002364
:1030D000BB600023FB737B685A1E1E491346DB004E
:1030E00013449B000B4408335B79002B02D101236E
:1030F000FB7329E07B685A1E16491346DB00134414
:103100009B000B4408335B79022B04D07868FFF7EF
:10311000A1FF0346FB73FB7B002B15D13B680E4AD6
:10312000A2FB03239B09BB607B685A1E0949134617
:10313000DB0013449B000B441833BA685A6078686C
:10314000FFF748FF0346FB73FB7B18461037BD466D
:1031500080BD00BF488BFE1FD34D621080B483B08A
:1031600000AF78600B46FB70FB7801229A407B68C9
:10317000DA600C37BD465DF8047B704780B483B0DD
:1031800000AF78607B680122DA600C37BD465DF8DD
:10319000047B704780B483B000AF78600B467B80BF
:1031A0007A887B685A630C37BD465DF8047B7047AC
:1031B00080B483B000AF78600B467B807A887B68F0
:1031C000DA630C37BD465DF8047B704780B483B08A
:1031D00000AF786039607B683A681A610C37BD4689
:1031E0005DF8047B704700BF80B483B000AF7860A7
:1031F0000B46FB707B68D3F8A420FB78012101FA11
:1032000003F31A437B68C3F8A4200C37BD465DF86E
:10321000047B704780B483B000AF78600B46FB70CE
:10322000FB7801229A407B68DA600C37BD465DF876
:10323000047B704780B483B000AF78607B68012264
:10324000DA600C37BD465DF8047B704780B483B00C
:1032500000AF786039607B683A681A610C37BD4608
:103260005DF8047B704700BF80B483B000AF786026
:103270000B46FB707B68D3F8A420FB78012101FA90
:1032800003F31A437B68C3F8A4200C37BD465DF8EE
:10329000047B704780B584B000AF78600123FB7376
:1032A0007B6893F82930022B4DD17B681B68184648
:1032B00000F020FC0346FB73FB7B002B3FD17B68B7
:1032C0009A687B68DB6810461946FDF79BFE7B68B1
:1032D0009A687B68DB699BB210461946FFF75AFF74
:1032E0007B689A687B689B699BB210461946FFF71A
:1032F0005FFF7B685A687B685B6A10461946FFF778
:1033000065FF786800F024F87B6819697B6893F89A
:103310002C207B685B69084611461A46FDF74EF87B
:103320007B68002283F829207B6893F82F30002BDC
:1033300002D0786800F0BAF90023FB7303E07B68E1
:10334000022283F82920FB7B18461037BD4680BD3A
:1033500080B582B000AF78607B6893F83030002B86
:103360000FD07B689B6818460021FFF73DFF7B6804
:103370009A687B6893F82A30104600211A46FDF7B8
:103380003BFF7B6893F83130002B0FD07B689B6844
:1033900018460221FFF728FF7B689A687B6893F83C
:1033A0002B30104602211A46FDF726FF0837BD468E
:1033B00080BD00BF80B582B000AF78607B6893F8B5
:1033C0002930002B04D07B6893F82930042B11D1CD
:1033D0007B685A687B6893F82E3010461946FFF7D1
:1033E000BDFE7B689B681846FFF7C8FE7B6803221A
:1033F00083F829200837BD4680BD00BF80B586B060
:1034000000AF786039600123FB757B6893F8293041
:10341000022B2CD03B6842F21072934227D87B6873
:10342000DB6901333B613B68C3F51C5310333A69D8
:1034300002FB03F3104AA2FB03235B0BFB607B68D8
:10344000FA689A617B683A681A627B689A68FB68D6
:103450009BB210461946FFF7ABFE7B685A687B6843
:103460005B6A10461946FFF7B1FE0023FB75FB7D32
:1034700018461837BD4680BD5917B7D180B584B0FE
:1034800000AF78600123FB737B6893F82930022B2F
:103490004ED17B681B68184600F0FEFA0346FB73AA
:1034A000FB7B002B40D17B689A687B68DB68104609
:1034B0001946FDF785FF7B689A687B68DB699BB2DC
:1034C00010461946FDF7B6FF7B689A687B689B69D2
:1034D0009BB2104600211A46FDF7BAFF7B685A6876
:1034E0007B685B6A10461946FFF7B0FE786800F00B
:1034F00025F87B6819697B6893F82C207B685B69E9
:10350000084611461A46FCF759FF7B68002283F8EB
:1035100029207B6893F82F30002B02D0786800F0C8
:10352000C5F80023FB7303E07B68022283F829209F
:10353000FB7B18461037BD4680BD00BF80B582B00A
:1035400000AF78607B6893F83030002B0FD07B6839
:103550009B6818460021FFF787FE7B689A687B68A6
:1035600093F82A30104600211A46FDF789FF7B6840
:1035700093F83130002B0FD07B689B6818460221EE
:10358000FFF772FE7B689A687B6893F82B301046D1
:1035900002211A46FDF774FF0837BD4680BD00BF03
:1035A00080B582B000AF78607B6893F82930002B3B
:1035B00004D07B6893F82930042B11D17B685A68BA
:1035C0007B6893F82E3010461946FFF723FE7B6880
:1035D0009B681846FFF72EFE7B68032283F829209C
:1035E0000837BD4680BD00BF80B586B000AF7860AB
:1035F00039600123FB757B6893F82930022B2DD0AD
:103600003B6842F21072934228D87B68DB69013331
:103610003B613B68C3F51C5310333A6902FB03F36B
:10362000114AA2FB03235B0BFB607B68FA689A617B
:103630007B683A681A627B689A68FB689BB210469E
:1036400000211A46FDF704FF7B685A687B685B6AB5
:1036500010461946FFF7FAFD0023FB75FB7D18465F
:103660001837BD4680BD00BF5917B7D180B584B0AB
:1036700000AF78600123FB737B6893F82830002B40
:1036800004D17868FFF706FE0346FB737B6893F866
:103690002830012B04D17868FFF7F0FE0346FB7356
:1036A000FB7B18461037BD4680BD00BF80B582B099
:1036B00000AF78607B6893F82830002B02D17868DF
:1036C000FFF778FE7B6893F82830012B02D17868E9
:1036D000FFF766FF0837BD4680BD00BF80B584B0E8
:1036E00000AF786039600123FB737B6893F8283062
:1036F000002B05D178683968FFF780FE0346FB731D
:103700007B6893F82830012B05D178683968FFF77A
:103710006BFF0346FB73FB7B18461037BD4680BD2D
:1037200080B400AF044BDB6803F4E0631B0A184667
:10373000BD465DF8047B704700ED00E080B483B0C7
:1037400000AF0346FB7197F90730002B0BDB0849EC
:1037500097F907305B09FA7902F01F02012000FA9D
:1037600002F241F823200C37BD465DF8047B704718
:1037700000E100E080B483B000AF0346FB7197F92D
:103780000730002B0CDB094997F907305B09FA7900
:1037900002F01F02012000FA02F2603341F82320F8
:1037A0000C37BD465DF8047B704700BF00E100E0C8
:1037B00080B483B000AF03463960FB7197F90730DE
:1037C000002B0ADB0D4997F907303A68D2B2920014
:1037D000D2B20B4483F800230AE00949FB7903F0D5
:1037E0000F03043B3A68D2B29200D2B20B441A766D
:1037F0000C37BD465DF8047B704700BF00E100E078
:1038000000ED00E080B489B000AFF860B9607A6084
:10381000FB6803F00703FB61FB69C3F10703062B99
:1038200028BF0623BB61FB690633062B02D9FB695F
:10383000013B00E000237B61BB69012202FA03F334
:103840005A1EBB681A407B699A407B69012101FAC4
:1038500003F3591E7B680B40134318462437BD46BB
:103860005DF8047B704700BF90B583B000AF78600F
:103870007B6859687B6893F821207B680833084689
:1038800011461A46FCF79AFD7B6819687B68DA7F57
:103890007B681433084611461A46FDF759FE7B68CB
:1038A0001A687B6893F82030104619460122FDF70C
:1038B00075FE7B681C7FFFF733FF01467B685B7FEB
:1038C0001A467B689B7F084611461A46FFF79AFF07
:1038D000024663B218461146FFF76AFF7B6893F809
:1038E0002230002B0BD07B681B7F5BB21846FFF7A2
:1038F00041FF7B681B7F5BB21846FFF71FFF002369
:1039000018460C37BD4690BD80B400AF044BDB6851
:1039100003F4E0631B0A1846BD465DF8047B70475C
:1039200000ED00E080B483B000AF0346FB7197F96F
:103930000730002B0BDB084997F907305B09FA7950
:1039400002F01F02012000FA02F241F823200C3796
:10395000BD465DF8047B704700E100E080B483B0B1
:1039600000AF03463960FB7197F90730002B0ADB83
:103970000D4997F907303A68D2B29200D2B20B449F
:1039800083F800230AE00949FB7903F00F03043BA5
:103990003A68D2B29200D2B20B441A760C37BD46C6
:1039A0005DF8047B704700BF00E100E000ED00E03F
:1039B00080B489B000AFF860B9607A60FB6803F04A
:1039C0000703FB61FB69C3F10703062B28BF06232E
:1039D000BB61FB690633062B02D9FB69013B00E0A2
:1039E00000237B61BB69012202FA03F35A1EBB6804
:1039F0001A407B699A407B69012101FA03F3591E41
:103A00007B680B40134318462437BD465DF8047BA2
:103A1000704700BF80B582B000AF78607B681B78CC
:103A20005BB21846FFF77EFF0837BD4680BD00BF7A
:103A300090B583B000AF78607B681C78FFF764FFB7
:103A400001467B685B781A467B689B78084611467E
:103A50001A46FFF7ADFF024663B218461146FFF75C
:103A60007DFF7B68DB78002B02D07868FFF7D2FF00
:103A7000002318460C37BD4690BD00BF80B483B00C
:103A800000AF78607B684FF48072DA600C37BD4617
:103A90005DF8047B704700BF80B582B000AF7860EE
:103AA0007B685B7B83F00103DBB2002B0FD07B686C
:103AB0009A687B681B7B10461946FDF763FC7B68A0
:103AC0009B681846FFF7DAFF7B6801225A730023D0
:103AD00018460837BD4680BD80B483B000AF78601B
:103AE0007B684FF48072DA600C37BD465DF8047B6A
:103AF000704700BF80B582B000AF78607B685B7BA9
:103B000083F00103DBB2002B0FD07B689A687B68DF
:103B10001B7B10461946FDF757FA7B689B681846D1
:103B2000FFF7DAFF7B6801225A7300231846083733
:103B3000BD4680BD80B483B000AF786039607B68DB
:103B4000D3F880203B681033194601238B401A4379
:103B50007B68C3F880200C37BD465DF8047B704756
:103B600080B584B000AF78607B681B7E022B49D1A2
:103B70007B685A697B681B6910461946FEF7ACF8EA
:103B80000023FB602FE07B68FA6853F82230196845
:103B90007B68FA6853F822305B6808461946FEF7DE
:103BA0003FF97B68FA6853F822301B6818460321F6
:103BB000FEF7C6F97B68FA6853F822301B7A83F067
:103BC0000103DBB2002B05D07B685B691846F968FE
:103BD000FFF7B0FF7B68FA6853F8223000225A7270
:103BE000FB680133FB60FB68032BCCD97B685B7EF1
:103BF000002B04D07B685B691846FEF7BBF87B6836
:103C000000221A767B681B7E18461037BD4680BDA1
:103C100080B582B000AF78607B6819687B681A7CD9
:103C20007B680433084611461A46FCF7C7FB7B68DD
:103C300019687B681A7C7B685B7C084611461A46CB
:103C4000FDF7CAFC002318460837BD4680BD00BFFB
:103C500080B485B000AF78607B6803F00703FB6039
:103C60000C4BDB68BB60BA684FF6FF031340BB60C8
:103C7000FB681A02BB68134343F0BF6343F400338D
:103C8000BB60044ABB68D3601437BD465DF8047B53
:103C9000704700BF00ED00E080B582B000AF0120AA
:103CA000FFF7D6FF72B6214B214A9A60BFF34F8FC0
:103CB00062B61E4A1D4BD3F8883043F47003C2F835
:103CC00088301C4B03F5805314331B687B607B6882
:103CD00023F00F037B607B6843F004037B60154B8C
:103CE00003F5805314337A681A60104A0F4B5B69EE
:103CF00023F0100353610D4A0C4B5B6923F008035A
:103D000053610A4A094B5B6A23F480335362074AC2
:103D1000064B5B6A23F400335362044A034B5B6A2D
:103D200023F4802353620837BD4680BD00ED00E0D8
:103D3000000000080010005880B485B000AF786023
:103D40000023FB737B6801221A70FB7B1846143733
:103D5000BD465DF8047B704780B400AF024B184647
:103D6000BD465DF8047B7047001BB700B0B586B058
:103D700000AF134B3C1D1D460FCD0FC42B682360B5
:103D80003B1D1846FCF714FC0020FCF739FD002011
:103D9000FCF7EEFC0420FCF7BFFDFCF749FE012018
:103DA0002021FCF755FE0020FCF7F6FC0120FCF773
:103DB000DBFD0120FCF7C4FD1837BD46B0BD00BFD8
:103DC000AC78000880B483B000AF78600B46FB701D
:103DD000FB7801229A407B68DA600C37BD465DF8BB
:103DE000047B704780B483B000AF78607B680122A9
:103DF000DA600C37BD465DF8047B704780B483B051
:103E000000AF78607B6802221A610C37BD465DF80E
:103E1000047B704780B483B000AF78600B467B8032
:103E20007A887B685A630C37BD465DF8047B70471F
:103E300080B483B000AF78600B467B807A887B6863
:103E4000DA630C37BD465DF8047B704780B483B0FD
:103E500000AF786039607B683A681A610C37BD46FC
:103E60005DF8047B704700BF80B584B000AF786018
:103E70000023FB737B6893F8313083F00103DBB2DE
:103E8000002B30D07B6893F82D30002B0CD17B6851
:103E90005B691846FFF72EFE0346FB73FB7B002B86
:103EA00002D1786800F0D4F87B685B6A002B0CD0F4
:103EB0007B685B6A19687B685B6A1A797B689B6AB6
:103EC000084611461A46FCF779FA7B68012283F806
:103ED00031207B6893F82F30002B04D0786800F0F5
:103EE00007F80346FB73FB7B18461037BD4680BDC1
:103EF00080B584B000AF78607B6893F83130002BD8
:103F00001ED07B6893F82D30002B16D17B689B69FF
:103F10005B6F7B689B699B6F7B689B69DB6F7B68D2
:103F20009B69D3F880307B689B691846FFF766FF72
:103F30007B689B691846FFF755FF0023FB7301E080
:103F40000123FB73FB7B18461037BD4680BD00BFC5
:103F500080B586B000AF786039600023FB75002320
:103F6000BB757B6893F83130002B69D07B6893F880
:103F70002D30002B66D17B6893F82E30002B04D0B7
:103F80007B6893F82E30032B41D100233B61002343
:103F9000FB607B689A6907F11003104600211A46FE
:103FA00000F07EF90346FB757B689A6907F10C0304
:103FB000104601211A4600F073F90346BB7507F15C
:103FC000100378681946012200F09AF83B69786876
:103FD000194600F0F9F803463B6107F10C037868D5
:103FE0001946002200F08CF8FB687868194600F04A
:103FF000EBF80346FB603A69FB681A443B681A60B9
:10400000BB7D022B02D10223FB7518E017E07B6811
:104010009B69184601213A6800F042F90346FB7596
:1040200078683968012200F06BF83B681B68786893
:10403000194600F0C9F802463B681A6002E001E048
:104040000123FB75FB7D18461837BD4680BD00BFB8
:1040500080B582B000AF78607B689A697B68DB6965
:1040600010461946FDF704F8786800F02BF87B68D5
:104070009A697B68DB68104601211A46FDF752F801
:104080007B689A697B681B69104602211A46FDF716
:1040900049F87B689B6918460121FDF70FF87B689A
:1040A0009B6918460221FDF723F87B685B699A68D3
:1040B0007B6893F82C3010461946FFF783FE0837CB
:1040C000BD4680BD80B582B000AF78607B689B69DB
:1040D00018464FF6FF71FFF79DFE7B689B691846F7
:1040E0000021FFF7A5FE7B685B699A687B689B6887
:1040F00010461946FFF7AAFE0837BD4680BD00BF2F
:1041000080B48DB000AFF860B9601346FB71002336
:10411000FB62002387F82B30BB681B689BB27B6275
:10412000BB681B681B0C03F00F03BB61FB79002B02
:1041300002D07B6A01337B62FB6893F82D30002B41
:1041400011D1FB68DB691B79C3F30303DBB2FB62AC
:10415000FB68DB699B7803F00103DBB2002B02D024
:10416000012387F82B3097F82B30002B23D0002326
:104170003B620023FB61BA69FB6AD31A7B617B69EE
:104180003B620AE0FB695B00FB61FB6903F57F436F
:10419000FF33FB613B6A013B3B623B6A002BF1DC76
:1041A0007B697A6A02FA03F3FA691344FB61BB681C
:1041B000FA691A6002E0BB687A6A1A603437BD4651
:1041C0005DF8047B704700BFB0B58CB000AF78607D
:1041D00039600123FB6200237B627B6893F82D30FA
:1041E000002B0DD17B68DB691B79C3F30303DBB2C2
:1041F0007B627B685B691A687B6A22FA03F3FB6265
:104200003B68FB60FB68002B01D1202303E0FB68C7
:10421000B3FA83F3DBB23B62FB6ABB60BB68002B83
:1042200001D1202303E0BB68B3FA83F3DBB2FB6167
:104230003A6AFB699A4202D9FB69BB6201E03B6AB8
:10424000BB62BB6A3A6802FA03F33B60BB6AFA6A74
:1042500002FA03F3FB623B681A464FF000030F4972
:1042600001FB03F0002101FB02F101440B48A2FB1A
:10427000002319440B46F96A0C464FF0000510461E
:10428000194622462B4601F08BF902460B46C7E938
:1042900004233B6918463037BD46B0BD00CA9A3B7F
:1042A00080B489B000AFF8600B467A60FB720223DD
:1042B000FB77FB7A012B1CD1FB68D3F880207B684D
:1042C0001A607B681B6803F48013002B02D0002364
:1042D000FB7728E0FB68DB6FBB61BB6903F48013ED
:1042E000002B05D00023FB77BA697B681A601AE0BF
:1042F00019E0FB689A6F7B681A607B681B6803F49F
:104300008013002B02D00023FB770CE0FB685B6F6F
:104310007B617B6903F48013002B04D00023FB77BF
:104320007A697B681A60FB7F18462437BD465DF8C2
:10433000047B704780B400AF044BDB6803F4E06398
:104340001B0A1846BD465DF8047B704700ED00E08F
:1043500080B483B000AF0346FB7197F90730002BA0
:104360000BDB084997F907305B09FA7902F01F0265
:10437000012000FA02F241F823200C37BD465DF817
:10438000047B704700E100E080B483B000AF0346D7
:104390003960FB7197F90730002B0ADB0D4997F95B
:1043A00007303A68D2B29200D2B20B4483F80023AD
:1043B0000AE00949FB7903F00F03043B3A68D2B2E3
:1043C0009200D2B20B441A760C37BD465DF8047BDE
:1043D000704700BF00E100E000ED00E080B489B06C
:1043E00000AFF860B9607A60FB6803F00703FB6117
:1043F000FB69C3F10703062B28BF0623BB61FB69DA
:104400000633062B02D9FB69013B00E000237B61E8
:10441000BB69012202FA03F35A1EBB681A407B698A
:104420009A407B69012101FA03F3591E7B680B4016
:10443000134318462437BD465DF8047B704700BF20
:1044400080B483B000AF78607B68D3F8043243F463
:1044500000727B68C3F804220C37BD465DF8047B0C
:10446000704700BF80B485B000AFF860B9607A6073
:10447000FB68BA68603253F822207B68012101FA98
:1044800003F342EA0301FB68BA68603243F8221082
:104490001437BD465DF8047B704700BF80B485B01B
:1044A00000AFF860B9607A607B681968FB68BA6829
:1044B000A03243F822101437BD465DF8047B7047E4
:1044C00080B483B000AF786039607B683A68C032EE
:1044D00053F822309BB218460C37BD465DF8047B7A
:1044E000704700BF90B585B000AF78607B681B7ED9
:1044F000022B40F099807B68DB681846FFF730FBA1
:104500000346BB737B68DB685A697B689B6810460F
:10451000196800220023FDF709FC7B68DB685A69F3
:104520007B685B6810461946FDF726FD0023FB7388
:104530002EE07B681B68FA7B53F82230BB60BB68B7
:104540009A68BB685B7B1946BB681B6810461A46B5
:10455000FDF790FDBB689A68BB681B689B78C3F346
:104560000303DBB21946BB685B6810461A46FFF7C7
:1045700095FF7B68DB685A69BB681B7B1946BB6883
:104580005B7B10461A46FFF76DFFFB7B0133FB7325
:10459000FB7B002BCDD07B685B681B7A03F00803A4
:1045A000DBB2002B2CD07B681B69002B28D07B68EA
:1045B0001B691B68DCB2FFF7BDFE01467B681B6907
:1045C0005A687B681B699B68084611461A46FFF7C4
:1045D00005FF024663B218461146FFF7D5FE7B6819
:1045E000DB685A697B685B7E10461946FDF7F4FB71
:1045F0007B681B691B68DBB25BB21846FFF7A8FE3D
:104600007B685B69002B02D07B685B6998477B689D
:104610009B7E002B05D07B68DB685B691846FFF743
:104620000FFF7B68BA7B1A767B681B7E18461437AF
:10463000BD4690BD80B584B000AF78607B689A6855
:104640007B681B689B78C3F30303DBB210461946F3
:10465000FFF736FF0346FB81FB8918461037BD463E
:1046600080BD00BF80B582B000AF0023FB713D4824
:10467000FFF762FB0346FB71FB79002B04D13A483C
:10468000FDF73AFE0346FB71FB79002B04D1374856
:10469000FFF7BEFA0346FB71FB79002B04D13448C7
:1046A000FFF7E2F80346FB71FB79002B04D1314898
:1046B000FEF7D8F80346FB71FB79002B04D12E4896
:1046C000FFF7B6F90346FB71FB79002B04D12B48A9
:1046D000FEF7CCFF0346FB71FB79002B04D1284881
:1046E000FEF7C4FF0346FB71FB79002B04D125487C
:1046F000FEF798FB0346FB71FB79002B04D122489F
:10470000FFF7B2FB0346FB71FB79002B04D11F4876
:10471000FEF7ACFF0346FB71FB79002B04D11C486C
:10472000FFF7E0FE0346FB71FB79002B04D119482B
:10473000FEF79CFF0346FB71FB79002B04D1164862
:10474000FFF766FA0346FB71FB79002B04D113488F
:10475000FEF788F80346FB71FB7918460837BD461B
:1047600080BD00BF048BFE1F0088FE1F84780008F8
:10477000F47700081488FE1F187800086488FE1F6C
:104780009888FE1F008BFE1FB089FE1FCC88FE1F7D
:10479000088AFE1F0089FE1F987800083C88FE1FCB
:1047A00080B483B000AF78600B46FB70FB784FF0AD
:1047B00001129A407B685A600C37BD465DF8047B55
:1047C000704700BF80B582B000AF78607B681A6820
:1047D0007B681B7C10461946FFF7E2FF0837BD4691
:1047E00080BD00BF80B500AF3048FFF723FF034610
:1047F0001A462F4B1A802F4B1B68B3F57A7F10D3C4
:104800002B4B1B88B3F57A7F0BD82B4B1B680133DE
:10481000294A13602948FFF7D5FF294B1B68294A0D
:104820001360244B1B68B3F57A7F39D8204B1B8863
:10483000B3F57A7F34D3204B1B68012B30D11E4B4C
:1048400000221A60204B1B6803F00103002B1BD1D0
:104850001B4B93ED007A1B4BD3ED007A77EE677A12
:10486000184BC3ED007A194B1B6807EE903AB8EE6F
:10487000E77A144BD3ED007AB4EEE77AF1EE10FA52
:1048800002D8134B01221A600F4B1B6801330E4AEA
:1048900013600D4B1B68092B02DD0B4B00221A60C5
:1048A000034B1B881A46034B1A6080BDF489FE1F18
:1048B0003C8DFE1F0C8BFE1F108BFE1F84780008A2
:1048C000348BFE1F1C8BFE1F148BFE1F248AFE1FC1
:1048D000188BFE1F80B500AF42F210700121064A0E
:1048E0000023FEF7D9FA0246044B1A60034B1B68FB
:1048F0001846FEF76FFB80BDE54700086C8CFE1F75
:1049000080B500AF074B1B6807481946FEF7E6FE67
:10491000064B4FF000021A60054B1B681846FEF765
:1049200099FB80BD288AFE1F6488FE1F308BFE1F06
:10493000448DFE1F0000000080B500AF224B93EDB8
:10494000007A224BD3ED007A77EE677A204BC3EDE5
:10495000007A1F4BD3ED007AB6EE007A67EE877AC5
:104960001C4BC3ED007A1B4B1B68184600F03AFB4A
:1049700002460B46104619460FA3D3E9002300F068
:1049800085FB02460B46104619460DA3D3E90023CA
:1049900000F0CAF902460B461046194600F088FDA1
:1049A00002460D4B1A600C4B1B680C481946FEF76B
:1049B00095FE184680BD00BFB81E85EB51B8CE3FAE
:1049C0003333333333FB8B40308BFE1F248BFE1F7E
:1049D000388BFE1F3C8BFE1F4C8DFE1F9888FE1FE0
:1049E00080B582B000AF78607B689A2B04DC164BF0
:1049F0004FF000021A601DE0786800F0E1FA02460C
:104A00000B46104619460EA3D3E9002300F03EFBE7
:104A100002460B46104619464FF000020B4B00F0C1
:104A200081F902460B461046194600F069FD024620
:104A3000054B1A600837BD4680BD00BFAFF300804C
:104A4000AE47E17A14AE1B40308BFE1F00B08E40A3
:104A500080B584B000AF7860786800F0B1FA0246A3
:104A60000B461046194612A3D3E9002300F00EFBB3
:104A700002460B46104619464FF000020A4B00F062
:104A800053F902460B461046194600F011FD034645
:104A9000FB60FB6805481946FEF720FE1037BD464F
:104AA00080BD00BFAFF3008000E085406488FE1F3A
:104AB000CDCCCCCCCCCCF43F80B400AF044B1B6845
:104AC0000133034A1360BD465DF8047B704700BFA5
:104AD000208BFE1FB0B500AF1B4B1B6807EE903A52
:104AE000F8EEE77A9FED197A67EE877A77EEA77A84
:104AF000174BC3ED007A174B1B68184600F072FA8B
:104B000004460D46124B1B68184600F06BFA02462D
:104B10000B46104619464FF000020F4B00F0B6FA54
:104B200002460B462046294600F0FEF802460B4698
:104B30001046194600F0E4FC0246064B1A60024B90
:104B400000221A60B0BD00BF208BFE1F2C40AE3E7D
:104B5000248BFE1F348BFE1F0000E03F80B582B027
:104B600000AFFFF77FFD0346FB7100F0C1F8FFF7D0
:104B7000B1FEFB79002B00D0FEE738480121384A0E
:104B80000023FEF789F90246364B1A6042F2107094
:104B90000121354A0023FEF77FF90246334B1A60A4
:104BA000324B1B681846FEF715FA3148314904228A
:104BB000FDF7B4FB0346002B4FD12E4B1A782E4B3A
:104BC0001A702D4B1B78012B47D12A4B5A782B4B4F
:104BD0001A70284B9A782A4B1A70264BDA78294B90
:104BE0001A70264B1A78264B1B785340DAB2254BA5
:104BF0001B789A4225D1244BD3ED007AB3EE047A88
:104C0000F4EEC77AF1EE10FA0ADB1C4B1B7818465B
:104C1000FFF7E6FE1A4B1B781846FFF719FF09E06D
:104C20001A4B1B681846FFF7DBFE154B1B7818461E
:104C3000FFF70EFF0B4B1B6818460849FEF742FAB8
:104C40000BE00C4B00221A700A4B00225A70094BE1
:104C500000229A70074B0022DA70A6E740420F004C
:104C600001490008448DFE1F39490008408DFE1F90
:104C70000088FE1F288BFE1F2C8BFE1F2D8BFE1F16
:104C8000508DFE1F2E8BFE1F608DFE1F2C8AFE1F77
:104C900080B500AF0F48FEF709FD0F480F49FFF739
:104CA00057F90E4B1B6807EE903AF8EE677A9FEDC6
:104CB0000C7AC7EE877A0B4BC3ED007A094BD3ED24
:104CC000007A9FED097AC7EE877A084BC3ED007A28
:104CD00080BD00BFCC88FE1FB089FE1F688DFE1FFF
:104CE00000007A44648DFE1F00006842608DFE1F44
:104CF00080B500AF4EF660200121064A0023FEF782
:104D0000CBF80246044B1A60034B1B681846FEF7AB
:104D100061F980BD914C00086C8DFE1F81F000414F
:104D200002E000BF83F0004330B54FEA41044FEA90
:104D3000430594EA050F08BF90EA020F1FBF54EA2B
:104D4000000C55EA020C7FEA645C7FEA655C00F0C7
:104D5000E2804FEA5454D4EB5555B8BF6D420CDD98
:104D60002C4480EA020281EA030382EA000083EA1B
:104D7000010180EA020281EA0303362D88BF30BDBB
:104D800011F0004F4FEA01314FF4801C4CEA113111
:104D900002D0404261EB410113F0004F4FEA033370
:104DA0004CEA133302D0524263EB430394EA050FFB
:104DB00000F0A780A4F10104D5F1200E0DDB02FA6A
:104DC0000EFC22FA05F2801841F1000103FA0EF2FE
:104DD000801843FA05F359410EE0A5F120050EF1C4
:104DE000200E012A03FA0EFC28BF4CF0020C43FAF5
:104DF00005F3C01851EBE37101F0004507D54FF002
:104E0000000EDCF1000C7EEB00006EEB0101B1F551
:104E1000801F1BD3B1F5001F0CD349085FEA300097
:104E20004FEA3C0C04F101044FEA445212F5800FA2
:104E300080F09A80BCF1004F08BF5FEA500C50F13F
:104E4000000041EB045141EA050130BD5FEA4C0C22
:104E5000404141EB010111F4801FA4F10104E9D1AB
:104E600091F0000F04BF01460020B1FA81F308BFA2
:104E70002033A3F10B03B3F120020CDA0C3208DD6E
:104E800002F1140CC2F10C0201FA0CF021FA02F149
:104E90000CE002F11402D8BFC2F1200C01FA02F1B9
:104EA00020FA0CFCDCBF41EA0C019040E41AA2BFDE
:104EB00001EB0451294330BD6FEA04041F3C1CDAA6
:104EC0000C340EDC04F11404C4F1200220FA04F0C6
:104ED00001FA02F340EA030021FA04F345EA030170
:104EE00030BDC4F10C04C4F1200220FA02F001FA32
:104EF00004F340EA0300294630BD21FA04F02946B4
:104F000030BD94F0000F83F4801306BF81F480114C
:104F10000134013D4EE77FEA645C18BF7FEA655CBF
:104F200029D094EA050F08BF90EA020F05D054EA91
:104F3000000C04BF1946104630BD91EA030F1EBF96
:104F40000021002030BD5FEA545C05D1400049419A
:104F500028BF41F0004130BD14F580043CBF01F58D
:104F6000801130BD01F0004545F0FE4141F4700173
:104F70004FF0000030BD7FEA645C1ABF194610464E
:104F80007FEA655C1CBF0B46024650EA013406BF4F
:104F900052EA033591EA030F41F4002130BD00BF0E
:104FA00090F0000F04BF0021704730B54FF48064CB
:104FB00004F132044FF000054FF0000150E700BF4C
:104FC00090F0000F04BF0021704730B54FF48064AB
:104FD00004F1320410F0004548BF40424FF0000198
:104FE0003EE700BF42004FEAE2014FEA31014FEADB
:104FF00002701FBF12F07F4393F07F4F81F060512A
:10500000704792F0000F14BF93F07F4F704730B598
:105010004FF4607401F0004521F0004120E700BF2B
:1050200050EA010208BF704730B54FF000050AE0B2
:1050300050EA010208BF704730B511F0004502D5B3
:10504000404261EB41014FF4806404F132045FEAB5
:10505000915C3FF4DCAE4FF003025FEADC0C18BF5A
:1050600003325FEADC0C18BF033202EBDC02C2F150
:10507000200300FA03FC20FA02F001FA03FE40EAE2
:105080000E0021FA02F11444C1E600BF70B54FF0E2
:10509000FF0C4CF4E06C1CEA11541DBF1CEA1355C4
:1050A00094EA0C0F95EA0C0F00F0DEF82C4481EA2C
:1050B000030621EA4C5123EA4C5350EA013518BF4C
:1050C00052EA033541F4801143F4801338D0A0FB39
:1050D00002CE4FF00005E1FB02E506F00042E0FBE6
:1050E00003E54FF00006E1FB03569CF0000F18BFEC
:1050F0004EF0010EA4F1FF04B6F5007F64F5407494
:1051000004D25FEA4E0E6D4146EB060642EAC62126
:1051100041EA55514FEAC52040EA5E504FEACE2E93
:10512000B4F1FD0C88BFBCF5E06F1ED8BEF1004F96
:1051300008BF5FEA500E50F1000041EB045170BD12
:1051400006F0004646EA010140EA020081EA030156
:10515000B4EB5C04C2BFD4EB0C0541EA045170BD52
:1051600041F480114FF0000E013C00F3AB8014F1CC
:10517000360FDEBF002001F0004170BDC4F1000415
:10518000203C35DA0C341BDC04F11404C4F1200596
:1051900000FA05F320FA04F001FA05F240EA0200F1
:1051A00001F0004221F0004110EBD37021FA04F627
:1051B00042EB06015EEA430E08BF20EAD37070BDE1
:1051C000C4F10C04C4F1200500FA04F320FA05F040
:1051D00001FA04F240EA020001F0004110EBD37042
:1051E00041F100015EEA430E08BF20EAD37070BDB2
:1051F000C4F1200500FA05F24EEA020E20FA04F38B
:1052000001FA05F243EA020321FA04F001F0004139
:1052100021FA04F220EA020000EBD3705EEA430EAA
:1052200008BF20EAD37070BD94F0000F0FD101F0D9
:105230000046400041EB010111F4801F08BF013C12
:10524000F7D041EA060195F0000F18BF704703F050
:105250000046520043EB030313F4801F08BF013DD7
:10526000F7D043EA0603704794EA0C0F0CEA135593
:1052700018BF95EA0C0F0CD050EA410618BF52EA4D
:105280004306D1D181EA030101F000414FF0000053
:1052900070BD50EA410606BF1046194652EA430661
:1052A00019D094EA0C0F02D150EA013613D195EAD5
:1052B0000C0F05D152EA03361CBF104619460AD11D
:1052C00081EA030101F0004141F0FE4141F4700127
:1052D0004FF0000070BD41F0FE4141F4780170BD17
:1052E00070B54FF0FF0C4CF4E06C1CEA11541DBF7C
:1052F0001CEA135594EA0C0F95EA0C0F00F0A7F87E
:10530000A4EB050481EA030E52EA03354FEA0131AA
:1053100000F088804FEA03334FF0805545EA1313BD
:1053200043EA12634FEA022245EA111545EA106585
:105330004FEA00260EF000419D4208BF964244F11C
:10534000FD0404F5407402D25B084FEA3202B61A3B
:1053500065EB03055B084FEA32024FF480104FF40F
:10536000002CB6EB020E75EB030E22BFB61A754683
:1053700040EA0C005B084FEA3202B6EB020E75EB16
:10538000030E22BFB61A754640EA5C005B084FEA7E
:105390003202B6EB020E75EB030E22BFB61A75464B
:1053A00040EA9C005B084FEA3202B6EB020E75EB56
:1053B000030E22BFB61A754640EADC0055EA060E17
:1053C00018D04FEA051545EA16754FEA06164FEA5A
:1053D000C30343EA52734FEAC2025FEA1C1CC0D106
:1053E00011F4801F0BD141EA00014FF000004FF093
:1053F000004CB6E711F4801F04BF01430020B4F154
:10540000FD0C88BFBCF5E06F3FF6AFAEB5EB030C0B
:1054100004BFB6EB020C5FEA500C50F1000041EB08
:10542000045170BD0EF0004E4EEA113114EB5C04D5
:10543000C2BFD4EB0C0541EA045170BD41F48011A8
:105440004FF0000E013C90E645EA060E8DE60CEAB0
:10545000135594EA0C0F08BF95EA0C0F3FF43BAFCD
:1054600094EA0C0F0AD150EA01347FF434AF95EA84
:105470000C0F7FF425AF104619462CE795EA0C0F68
:1054800006D152EA03353FF4FDAE1046194622E735
:1054900050EA410618BF52EA43067FF4C5AE50EA0F
:1054A00041047FF40DAF52EA43057FF4EBAE12E7FF
:1054B0004FEA410212F5001215D211D56FF478733C
:1054C000B3EB625212D94FEAC12343F0004343EADF
:1054D000505311F0004F23FA02F018BF40427047BA
:1054E0004FF00000704750EA013005D111F0004044
:1054F00008BF6FF0004070474FF00000704700BFDA
:105500004FEA4102B2F1E04324BFB3F5001CDCF1E5
:10551000FE5C0DD901F0004C4FEAC0024CEA50701D
:10552000B2F1004F40EB830008BF20F0010070474C
:1055300011F0804F21D113F13872BCBF01F000404F
:10554000704741F480114FEA5252C2F11802C2F181
:10555000200C10FA0CF320FA02F018BF40F0010002
:105560004FEAC1234FEAD32303FA0CFC40EA0C00B4
:1055700023FA02F34FEA4303CCE77FEA625307D1F1
:1055800050EA01331EBF4FF0FE4040F44000704728
:1055900001F0004040F0FE4040F40000704700BFC2
:1055A0004BB942B9002908BF002802D04FF0FF31A3
:1055B000084600F03BB882B0EC462DE9005000F000
:1055C0001DF8DDF804E002B00CBC70472DE9F04195
:1055D000069C154606460F46984600F029F805FB3E
:1055E00001F300FB0838A5FB0023B21A434467EB24
:1055F0000303C4E90023BDE8F08100BF2DE9F041B9
:10560000069C904606460F461D4600F05FF900FBDB
:1056100005F5A0FB082308FB0155B21A2B4467EBE4
:105620000303C4E90023BDE8F08100BF704700BF59
:1056300000292DE9F043C0F2A6800026002BC0F21D
:105640009C80884694469E46154604460F46002B8D
:105650003DD18A4259D9B2FA82F33BB1C3F120025B
:105660009F4020FA02F29D4017439C40290C220CD7
:10567000B7FBF1FEA8B201FB1E7742EA074700FB29
:105680000EF3BB420AD97F190EF1FF3280F005817B
:10569000BB4240F20281AEF1020E2F44FF1AA4B2C7
:1056A000B7FBF1F301FB137744EA074700FB03F074
:1056B000B84208D97F1903F1FF3280F0F080B84278
:1056C00040F2ED80023B43EA0E43002203E08B42AE
:1056D0000FD900221346341C18BF012460424FF03A
:1056E000000565EB45015840514000196941BDE88E
:1056F000F083B3FA83F2002A40F086808B4202D313
:10570000844500F2DB800123E5E712B90123B3FBF6
:10571000F2F5B5FA85F000283BD1781B4FEA154E1B
:105720001FFA85FC0122B0FBFEF8210C0EFB1807C6
:1057300041EA07470CFB08F3BB4207D97F1908F180
:10574000FF3102D2BB4200F2BD808846FF1AA4B2EC
:10575000B7FBFEF30EFB137744EA07470CFB03FC91
:10576000BC4507D97F1903F1FF3102D2BC4500F2D5
:10577000A7800B4643EA0843ADE752426FEA0606AC
:1057800063EB43035DE7404261EB41014FF0FF36BD
:1057900054E7C0F1200224FA02F107FA00F3854031
:1057A0004FEA154ED7401943B7FBFEF20B0C0EFB28
:1057B00012771FFA85FC43EA07430CFB02F79F426E
:1057C00004FA00F407D95B1902F1FF3074D29F424A
:1057D00072D9023A2B44DF1B89B2B7FBFEF80EFBED
:1057E000187341EA03430CFB08F79F4208D95B1981
:1057F00008F1FF315CD29F425AD9A8F102082B442C
:10580000D81B48EA02428EE7C2F120032CFA03F1CA
:105810000EFA02FE20FA03F741EA0E0E08FA02F031
:1058200028FA03F14FEA1E453843B1FBF5F8030CA3
:1058300005FB18111FFA8EF743EA014107FB08F335
:105840008B420CFA02FC09D911EB0E0108F1FF3969
:1058500030D28B422ED9A8F102087144C91A80B205
:10586000B1FBF5F305FB131140EA014107FB03F718
:105870008F4208D911EB0E0103F1FF3016D28F428F
:1058800014D9023B714443EA0843C91BA3FB0C89AA
:10589000494509D305D000221DE79646FEE613468A
:1058A00011E794404445F6D2013BF4E70346EAE7AA
:1058B0008846A5E7C846D1E702468CE713460AE7C3
:1058C000023B57E7A8F102082F443FE72DE9F041DA
:1058D000002B44D18A42154604464FD9B2FA82F7CA
:1058E0000E464FB1C7F12003B94020FA03F602FA81
:1058F00007F50E4300FA07F44FEA154E230CB6FBEA
:10590000FEF0AFB20EFB106143EA014307FB00F16A
:10591000994209D95B1900F1FF3280F0EC8099427D
:1059200040F2E98002382B445A1AA4B2B2FBFEF3CB
:105930000EFB132244EA024207FB03F7974208D901
:10594000521903F1FF3180F0D880974240F2D580A0
:10595000023B43EA004000263146BDE8F0818B421D
:1059600047D8B3FA83F6002E48D18B4202D3824245
:1059700000F2CD8001203146BDE8F08112B9012549
:10598000B5FBF2F5B5FA85F8B8F1000F77D14A1BEF
:105990004FEA154EAFB20126B2FBFEF0230C0EFB10
:1059A000102143EA014107FB00F38B4207D9491953
:1059B00000F1FF3202D28B4200F2BA801046C91ABF
:1059C000A4B2B1FBFEF30EFB131144EA014407FB42
:1059D00003F7A74208D9641903F1FF3280F08F80E2
:1059E000A74240F28C80023B43EA00403146BDE8CA
:1059F000F081002630463146BDE8F081C6F1200432
:105A000022FA04F5B3402B4320FA04FC01FA06F70E
:105A100021FA04F54FEA134E4CEA0707B5FBFEF8EE
:105A2000390C0EFB18551FFA83FC41EA05450CFBA7
:105A300008F1A94202FA06F204D9ED1808F1FF3480
:105A400067D3A0466D1ABFB2B5FBFEF40EFB14552A
:105A500047EA05410CFB04FC8C4504D9C91804F144
:105A6000FF355CD32C4644EA0844CCEB0101A4FB8F
:105A70000223994248D344D0204600266CE7C8F15F
:105A8000200401FA08F305FA08F520FA04F7E140CA
:105A90004FEA154E1F43B1FBFEF63A0C0EFB1611F2
:105AA0001FFA85FC42EA01430CFB06F29A4200FA17
:105AB00008F407D95B1906F1FF3137D29A4235D97C
:105AC000023E2B449B1ABFB2B3FBFEF00EFB103319
:105AD00047EA03430CFB00F1994207D95B1900F137
